:020000040800F2
:10000000D00400209D010008150A00089D07000883
:10001000110A000831060008BF10000800000000A7
:10002000000000000000000000000000890C000833
:100030003506000800000000A50A0008790D000838
:10004000B7010008B7010008B7010008B7010008B0
:10005000B7010008B7010008B7010008B7010008A0
:10006000B7010008B701000839060008B701000809
:10007000B7010008B7010008B7010008B701000880
:10008000B7010008B7010008B7010008B701000870
:10009000B7010008B7010008B7010008B701000860
:1000A000B7010008B7010008B7010008B701000850
:1000B000B7010008B7010008B7010008B701000840
:1000C000B7010008B7010008B7010008B701000830
:1000D000B7010008E50D0008050E0008750E0008C0
:1000E000B7010008B7010008B7010008B701000810
:1000F000B7010008B7010008B7010008B701000800
:10010000B7010008B7010008B7010008B7010008EF
:10011000B7010008B7010008B7010008B7010008DF
:10012000B7010008B7010008B7010008B7010008CF
:10013000B7010008B7010008B7010008B7010008BF
:10014000B7010008B7010008B7010008B7010008AF
:10015000B7010008B7010008B7010008B70100089F
:10016000B7010008B7010008B7010008B70100088F
:10017000B7010008B7010008B7010008B70100087F
:10018000B7010008B7010008DFF80CD000F072F9E1
:100190000048004791140008D0040020064880471A
:1001A00006480047FEE7FEE7FEE7FEE7FEE7FEE75C
:1001B000FEE7FEE7FEE7FEE77D0D00088901000887
:1001C0002DE9FE4F81EA030404F0004421F00041D0
:1001D00000944FF0000B23F0004350EA01045ED07E
:1001E00052EA03045BD0C3F30A54C1F30A552C440A
:1001F000A4F2F3340194A0FB0254C1F3130141F4BF
:100200008011C3F3130343F4801301FB024400FB8A
:10021000034E840A970A44EA815447EA8357A4FBB1
:10022000076802958D0A05FB07854FEA932C04FBAE
:100230000C542705029D4FEA065847EA1637B5EBDE
:1002400008056EEB070C870E920E47EA811742EA0B
:100250008312A7FB0201B6EB0B0164EB00042B0D2C
:1002600043EA0C335E1844EB1C50DA465146E7FB78
:100270000201C5F313044FEA0B3343EA14534FEA68
:100280000432019C43EA0603A4F10C040294009C8E
:10029000CDE900B400F09FF803B0BDE8F08F002076
:1002A0000146F9E70EB5C10F80EAE0700844CA07BD
:1002B000002140F233438DE80E000A460B4600F061
:1002C0008AF803B000BD01F0004330B421F00041D2
:1002D00050EA010206D00A0DA2F56072C1F31301C3
:1002E000002A02DC30BC00207047440F44EAC104FD
:1002F000C100E01830BC00EBC25000F026B830B5A9
:100300000B46014600202022012409E021FA02F5D3
:100310009D4205D303FA02F5491B04FA02F528446D
:10032000151EA2F10102F1DC30BD202A04DB203AC7
:1003300021FA02F00021704721FA02F3D040C2F105
:10034000200291400843194670470029A8BF704712
:10035000401C490008BF20F00100704710B4B0FAFB
:1003600080FC00FA0CF050EA010404BF10BC704796
:1003700049B1CCF1200421FA04F411FA0CF118BFB0
:10038000012121430843A3EB0C01CB1D4FEA00617F
:100390004FEA102042BF002010BC704700EBC35052
:1003A00010440029A4BF10BC7047401C490008BF7E
:1003B00020F0010010BC704710B5141E73F100044A
:1003C00008DA401C41F1000192185B411A4301D147
:1003D00020F0010010BD2DE9F04D92469B4611B171
:1003E000B1FA81F202E0B0FA80F22032904600F0D9
:1003F00053F804460F4640EA0A0041EA0B0153460F
:100400005A46084313D0114653EA010019D0C8F1E7
:1004100040025046FFF789FF05460E4650465946B2
:10042000424600F039F8084305D0012004E0204698
:100430003946BDE8F08D0020054346EAE0762C43BE
:1004400037430A986305E40AA0EB08000022FD0A7E
:1004500044EA47540A3002D500200146E9E7010585
:1004600010196941DDE9084500196941BDE8F04D01
:10047000A2E70000064C074D06E0E06840F00103EB
:1004800094E8070098471034AC42F6D3FFF780FE9B
:100490001815000838150008202A04DB203A00FA55
:1004A00002F1002070479140C2F1200320FA03F3CB
:1004B000194390407047000010B52DED068B82B0B7
:1004C00000249FED1F0AB0EE408A022201A90020FD
:1004D00000F0A0F89DF805009DF8041040EA012006
:1004E00004B247F6FF70844209DA00EE104AB8EE13
:1004F000C00ADFED140A20EE200AB0EE408A47F66B
:10050000FF70844216DB601EFFF7CCFE41EC1A0B35
:100510009FED0D0B53EC102BFFF752FE41EC190B26
:10052000FFF7D1FE00EE100AFFEE000A20EE200ACF
:10053000B0EE408AB0EE480A02B0BDEC068B10BDAA
:10054000000000000000003C000000000000803FB0
:1005500010B500F07FFB4FF400710C4800F0FAF882
:100560004FF48071094800F0F5F8052000F067FFAE
:100570004FF40071054800F0EBF8052000F05FFF34
:100580004FF48071014800F0E3F810BD0004024010
:1005900010B500F05FFB4FF400710A4800F0D8F886
:1005A0004FF48071074800F0D5F8052000F047FFB0
:1005B0004FF40071034800F0CDF8052000F03FFF34
:1005C00010BD0000000402401CB50121022000F013
:1005D0007FFA01208DF8040002208DF8050000202C
:1005E0008DF8060001208DF807004FF44070009050
:1005F0006946074800F038F84FF40071044800F0ED
:10060000A9F84FF48071024800F0A4F81CBD000066
:100610000004024070B504460D46164633462A468D
:100620002146482000F0BCF8642000F0D5FE70BDE3
:1006300000BFFEE77047000010B507480088401C67
:1006400005490880084600880A2801D10020088052
:10065000102000F003F810BD1C00002001490860C4
:1006600070470000143C0140F0B50A460021002309
:10067000002400BF3DE0012505FA01F3156805EAF5
:1006800003049C4234D105684F000326BE40B543A5
:10069000056015794E00B54006683543056015794B
:1006A000012D02D01579022D16D185684F00032641
:1006B000BE40B543856055794E00B54086683543E8
:1006C0008560456801268E40B5434560456896794A
:1006D0008E40B6B235434560C5684F000326BE4024
:1006E000B543C560D5794E00B540C6683543C56091
:1006F000491C1029BFD3F0BDF0B5002300244D07DD
:10070000ED0E02FA05F3CE1000F1200555F8265043
:100710004E07F70E0F26BE40B543CF1000F120065E
:1007200046F82750CE1000F1200555F8265045EA2E
:100730000304CE1000F1200545F82640F0BD024626
:10074000002013690B400BB1012000E0002070472E
:1007500041837047018370470CB50F4909788DF8C4
:1007600000100D4991F841108DF801100A4991F8D7
:1007700042108DF80410084991F847108DF80210C6
:10078000054991F848108DF80310009901609DF813
:10079000041001710CBD00007400002000BFFEE7D2
:1007A0002DE9F04105460F4616461C4600F03EFA7C
:1007B000FFF7CEFE002141EA4501C8B200F09EF8E5
:1007C00000F028F8384600F099F800F023F8FFF719
:1007D000BFFE0F2000F000FE012101EB4501C8B271
:1007E00000F08CF800F016F80EE000F037F83070EA
:1007F000012C03D1012000F059F802E0002000F0A4
:1008000055F8761C601E84B2002CEED1FFF7C0FEB6
:10081000BDE8F08110B500F009FAFF24611C0E4814
:10082000FFF798FF00BF00F0F7F920B12000A4F116
:100830000101CCB2F7D1002C03DCFFF7A9FEFF20A9
:1008400010BD4FF480710448FFF782FF022000F0D2
:10085000F6FD0020F4E700000004024070B500F04F
:10086000E5F900244FF400710F48FFF773FF0025EE
:1008700016E06006040E4FF480710B48FFF76AFF24
:10088000022000F0DCFD00F0C7F904434FF4807152
:100890000548FFF75DFF022000F0D1FD681CC5B2DE
:1008A000082DE6DB204670BD0004024010B504466A
:1008B00000F0D0F94FF480710F48FFF749FF2CB1D9
:1008C0004FF400710C48FFF745FF04E04FF400714E
:1008D0000948FFF73DFF052000F0B1FD4FF480719E
:1008E0000548FFF737FF052000F0A9FD4FF48071A0
:1008F0000148FFF72DFF10BD0004024070B504460B
:1009000000F0A8F9002521E004F0800028B14FF4A0
:1009100000711048FFF71EFF04E04FF400710D480E
:10092000FFF716FF4FF480710A48FFF713FF052009
:1009300000F085FD4FF480710648FFF709FF0520A0
:1009400000F07DFD6006040E681CC5B2082DDBDBDF
:1009500070BD00000004024010B588B004460121BB
:10096000084600F0B5F80121480400F0C1F807225C
:1009700002212548FFF7C0FE072203212248FFF786
:10098000BBFE02208DF8080003208DF8090000202E
:100990008DF80A0001208DF80B000C20019001A9B0
:1009A0001948FFF761FE04940020ADF81400ADF87B
:1009B0001600ADF81800ADF81C000C20ADF81A00B8
:1009C00004A9124800F008FB26208DF80C00022034
:1009D0008DF80D0000208DF80E0001208DF80F001D
:1009E00003A800F019F8012240F22551074800F051
:1009F000CDFA0121054800F086FA8A21034800F06B
:100A000011FC08B010BD000000000240004400408E
:100A100000BFFEE77047000070B5002100230F22E1
:100A2000C4781CB3174C246804F4E064C4F5E06493
:100A3000C4F30721C1F10404E3B20A4144789C40A5
:100A4000E1B28478144021430C07210E0E4C057846
:100A50006155047804F01F050124AC4005786D1140
:100A6000AD0005F1E025C5F8004109E0047804F087
:100A70001F050124AC40054D0678761145F8264047
:100A800070BD00000CED00E000E400E080E100E05B
:100A900002490143024A1160704700000000FA0554
:100AA0000CED00E0704710B54FF4A060FFF7F0FFC9
:100AB0004FF4165000F006FBFFF786FD4FF416408A
:100AC000FFF74AFF4FF4E13000F054FB10BD000087
:100AD00029B1064A12680243044B1A6004E0034A33
:100AE00012688243014B1A607047000030380240A0
:100AF00029B1064A12680243044B1A6004E0034A13
:100B000012688243014B1A6070470000403802406F
:100B100029B1064A12680243044B1A6004E0034AF2
:100B200012688243014B1A6070470000443802404B
:100B3000F0B5002100220024022500260223324FB6
:100B40003F6807F00C0121B1042905D0082937D1ED
:100B500005E02E4F076036E02D4F076033E02A4F47
:100B60003F1F3F68C7F38056274F3F1F3F6807F07E
:100B70003F036EB1264FB7FBF3F7DFF88CC0ACF143
:100B8000040CDCF800C0CCF3881C07FB0CF40CE070
:100B90001E4FB7FBF3F7DFF870C0ACF1040CDCF8C4
:100BA00000C0CCF3881C07FB0CF4174F3F1F3F68B5
:100BB000C7F301477F1C7D00B4FBF5F7076002E037
:100BC000124F076000BF00BF0F4F3F6807F0F001F2
:100BD0000909104F7A5C0768D74047600A4F3F68A1
:100BE00007F4E051890A0B4F7A5C4768D740876069
:100BF000054F3F6807F46041490B064F7A5C476830
:100C0000D740C760F0BD0000083802400024F4005F
:100C100000127A000000002010B54FF40071024865
:100C2000FFF78DFD10BD0000000402401CB501213E
:100C30000220FFF74DFF00208DF8040001208DF801
:100C400007004002009069460148FFF70DFD1CBDFA
:100C5000000402401CB501210220FFF739FF0120EA
:100C60008DF8040002208DF8050000208DF80600A4
:100C700001208DF807004002009069460148FFF707
:100C8000F3FC1CBD00040240704700000CB50020BE
:100C9000019000903448006840F480303249086088
:100CA00000BF3148006800F4003000900198401CFB
:100CB0000190009818B90198B0F5A04FF1D12A48D9
:100CC000006800F4003010B10120009001E0002025
:100CD00000900098012846D123484030006840F039
:100CE00080502149403108602048006840F440406D
:100CF0001E4908601C48083000681B49083108601C
:100D00000846006840F4004008600846006840F467
:100D1000A05008601648091F0860081F006840F0CE
:100D20008070091F086000BF0F48006800F0007065
:100D30000028F9D040F205700E4908600A480830D2
:100D4000006820F003000849083108600846006880
:100D500040F00200086000BF03480830006800F05F
:100D60000C000828F8D10CBD00380240007000408B
:100D700008544007003C02407047000010B5154879
:100D8000006840F47000134908601348006840F0A0
:100D900001001149086000200F49083108600E4821
:100DA00000680E4908400C4908600D48091D08609C
:100DB000081F006820F48020091F086000200649F1
:100DC0000C310860FFF762FF4FF000600149803985
:100DD000086010BD88ED00E000380240FFFFF6FE1D
:100DE0001030002410B540F22551054800F0A4F859
:100DF000012804D140F22551014800F075F810BDDA
:100E00000010014010B540F22551154800F094F84B
:100E100028B340F22551124800F066F8104800F05F
:100E200045F9C4B2FF2C02D101200E4908700D48CB
:100E3000007840B10C480D49097844540B480078BB
:100E4000401C0A49087009480078572807DD00202F
:100E5000064908700349087001200549087010BD53
:100E60000044004020000020740000201F000020EB
:100E70001E00002010B540F22551174800F05CF824
:100E800048B3154800F012F9C4B2144800684F285E
:100E900016DA134811490968445410480068401C88
:100EA0000E4908600A2C10D100210D480B4A126827
:100EB000815401200B49088000200849086004E0A3
:100EC0000020084908800549086040F22551024881
:100ED00000F00AF800BF10BD0048004010000020DC
:100EE000240000201400002010B50022002340F64A
:100EF0006A14A14200D100BF0A1201249440A3B297
:100F0000DC43048010BD21B1828942F40052828109
:100F100004E082894DF6FF731A40828170470246D1
:100F20000020B1F5007F00D100BF13880B400BB14A
:100F3000012000E00020704770B502460024002325
:100F40000025002040F66A16B14200D100BFC1F36F
:100F5000421501F01F03012606FA03F3012D02D109
:100F60009689334006E0022D02D1168A334001E013
:100F7000968A33400C12012606FA04F4168834408F
:100F800013B10CB1012000E0002070BDF0B50346A4
:100F9000002400260025002040F66A17B94200D13F
:100FA00000BF1846C1F3421401F01F06012707FADB
:100FB00006F5012C01D10C3004E0022C01D11030D7
:100FC00000E014301AB107682F43076002E0076899
:100FD000AF430760F0BD00002DE9FF4705460E4610
:100FE0000024A14600BFA046B08900B100BF2C8AF2
:100FF00024F44054F08804432C82AC8941F20C6004
:101000008443B08831890843718908430443AC8123
:10101000AC8A24F44074B0890443AC826846FFF77C
:1010200087FD2048854202D01F48854202D1DDF865
:101030000C9001E0DDF80890A88900F4004040B170
:1010400009EBC90000EB091031684900B0FBF1F76A
:1010500007E009EBC90000EB091031688900B0FB1B
:10106000F1F76420B7FBF0F004012009642101FBD3
:101070001078A88900F4004040B1322000EBC8008D
:10108000B0FBF1F000F00700044308E0322000EB71
:1010900008106421B0FBF1F000F00F0004432C8134
:1010A000BDE8FF8700100140001401400146888818
:1010B000C0F308007047C1F308028280704700BF88
:1010C000FEE7000010B588B0044601210846FFF78E
:1010D000FFFC01211020FFF71BFD072209212348F7
:1010E000FFF70AFB07220A212048FFF705FB022031
:1010F0008DF8080003208DF8090000208DF80A0003
:1011000001208DF80B004FF4C060019001A9174831
:10111000FFF7AAFA04940020ADF81400ADF8160009
:10112000ADF81800ADF81C000C20ADF81A0004A9A9
:101130000F48FFF751FF25208DF80C0001208DF896
:101140000D0000208DF80E0001208DF80F0003A87F
:10115000FFF762FC012240F225510548FFF716FF18
:1011600001210348FFF7CFFE08B010BD0000024088
:101170000010014010B588B0044601210220FFF79D
:10118000A7FC01218804FFF7B3FC07220A212348AA
:10119000FFF7B2FA07220B212048FFF7ADFA022031
:1011A0008DF8080003208DF8090000208DF80A0052
:1011B00001208DF80B004FF44060019001A9174801
:1011C000FFF752FA04940020ADF81400ADF81600B1
:1011D000ADF81800ADF81C000C20ADF81A0004A9F9
:1011E0000F48FFF7F9FE27208DF80C0001208DF83D
:1011F0000D0000208DF80E0001208DF80F0003A8CF
:10120000FFF70AFC012240F225510548FFF7BEFE18
:1012100001210348FFF777FE08B010BD000402402B
:101220000048004070B504460D4629462046FFF7A9
:1012300042FF00BF80212046FFF771FE0028F9D051
:1012400070BD00000FB4054B10B503A9044A029805
:1012500000F018F810BC5DF814FB000075140008CD
:101260001800002002E008C8121F08C1002AFAD1A5
:1012700070477047002001E001C1121F002AFBD116
:10128000704700002DE9FF4F89B09B4604460025BA
:1012900006E025280BD05A460B999047641C6D1C1C
:1012A00020780028F5D10DB02846BDE8F08F002742
:1012B000B8460122474900E0074314F8013F203BAC
:1012C00002FA03F00842F7D120782E2819D114F839
:1012D000010F47F004072A280ED06FF02F02207864
:1012E000A0F1300109290CD808EB880102EB41017B
:1012F00000EB0108641CF2E70A98641C50F8048BA8
:101300000A9020780028CED0642808D0692806D01A
:1013100075281ED05A460B9990476D1C58E00A99C3
:101320004FF00A0901C90A91002802DA40422D2132
:1013300002E0390504D52B218DF82010012103E0AE
:10134000F90704D02021F7E78A4608AE0DE0002116
:10135000FAE70A994FF00A0901C90A91F7E74946E5
:10136000FEF7CDFF303106F8011D0028F7D1ADEBB7
:10137000060000F12009780701D44FF00108C845A4
:1013800002DDA8EB090000E000208046002706E00F
:1013900008A85A46C05D0B9990476D1C7F1C5745A5
:1013A000F6DB04E030205A460B9990476D1CB8F1EB
:1013B0000001A8F10108F5DC05E016F8010B5A461A
:1013C0000B9990476D1CB9F10001A9F10109F4DCFA
:1013D000641C65E70928010000214FF0E02211613B
:1013E000C0EBC00101EB410101EB4102C2EBC111B5
:1013F0000122C2EBC1014FF0E02251610021916155
:101400000121116100BF4FF0E021096901F4803131
:101410000029F8D000214FF0E0221161704700B59B
:10142000034607E04FF4FA70FFF7D6FF4FF4FA7067
:10143000FFF7D2FF1800A3F10103F3D100BD002193
:101440004FF0E0221161C0EBC00101EB4101491EE8
:101450005161002191610121116100BF4FF0E02134
:10146000096901F480310029F8D000214FF0E02211
:101470001161704700BF054A128802F04002002A3D
:10148000F9D0C2B2014B9A807047000000100140B1
:101490001FB5FFF708FB28E06846FFF75DF9DDE9B7
:1014A0000001CDE90201FFF707F8BDEEC00A10EE1A
:1014B000104A9DF8090020B19DF809100BA0FFF714
:1014C000C1FE9DF80A0020B19DF80A100BA0FFF79D
:1014D000B9FE202C03DD21460BA0FFF7B3FE0DA0C3
:1014E000FFF7B0FE0120FFF79AFFD5E76865727439
:1014F00020726174653A2025640D0A007362703AA7
:101500002025640A0000000074656D702025640DBC
:101510000A0000002D0D0A00381500080000002008
:1015200024000000641200085C150008240000205C
:10153000AC04000074120008000000000102030463
:101540000102030406070809000000000000000073
:0C1550000000000000000000000000008F
:040000050800018965
:00000001FF
