:020000040800F2
:10000000D00400209D010008950D00081D0B00087C
:10001000910D0008B10900088714000800000000D5
:100020000000000000000000000000005110000867
:10003000B509000800000000250E00084111000865
:10004000B7010008B7010008B7010008B7010008B0
:10005000B7010008B7010008B7010008B7010008A0
:10006000B7010008B7010008B9090008B701000886
:10007000B7010008B7010008B7010008B701000880
:10008000B7010008B7010008B7010008B701000870
:10009000B7010008B7010008B7010008B701000860
:1000A000B7010008B7010008B7010008B701000850
:1000B000B7010008B7010008B7010008B701000840
:1000C000B7010008B7010008B7010008B701000830
:1000D000B7010008AD110008CD1100083D1200085D
:1000E000B7010008B7010008B7010008B701000810
:1000F000B7010008B7010008B7010008B701000800
:10010000B7010008B7010008B7010008B7010008EF
:10011000B7010008B7010008B7010008B7010008DF
:10012000B7010008B7010008B7010008B7010008CF
:10013000B7010008B7010008B7010008B7010008BF
:10014000B7010008B7010008B7010008B7010008AF
:10015000B7010008B7010008B7010008B70100089F
:10016000B7010008B7010008B7010008B70100088F
:10017000B7010008B7010008B7010008B70100087F
:10018000B7010008B7010008DFF80CD000F020FB31
:1001900000480047E9200008D004002006488047B6
:1001A00006480047FEE7FEE7FEE7FEE7FEE7FEE75C
:1001B000FEE7FEE7FEE7FEE74511000889010008BB
:1001C000D2B201E000F8012B491EFBD27047002299
:1001D000F6E710B513460A4604461946FFF7F0FF46
:1001E000204610BD30B505462A460B4612F8010BD5
:1001F00013F8014B08B1A042F8D01CB1002802D07E
:100200006D1CF1E7284630BD2DE9FE4F81EA03045D
:1002100004F0004421F0004100944FF0000B23F063
:10022000004350EA01045ED052EA03045BD0C3F3FA
:100230000A54C1F30A552C44A4F2F3340194A0FBF0
:100240000254C1F3130141F48011C3F3130343F4C7
:10025000801301FB024400FB034E840A970A44EA20
:10026000815447EA8357A4FB076802958D0A05FB72
:1002700007854FEA932C04FB0C542705029D4FEA97
:10028000065847EA1637B5EB08056EEB070C870EE4
:10029000920E47EA811742EA8312A7FB0201B6EBEE
:1002A0000B0164EB00042B0D43EA0C335E1844EBA6
:1002B0001C50DA465146E7FB0201C5F313044FEA2E
:1002C0000B3343EA14534FEA0432019C43EA06031A
:1002D000A4F10C040294009CCDE900B400F052F9A2
:1002E00003B0BDE8F08F00200146F9E72DE9F04D9D
:1002F00081EA030404F0004B21F0004514464FF05E
:10030000000A23F0004150EA050220D054EA01021D
:100310001DD0C5F30A570246C5F31303C1F31300FA
:10032000C1F30A5640F4801543F48013A7EB060886
:10033000101BD64608F2FD3873EB050002D308F116
:10034000010801E092185B41B8F1000F03DA0020C8
:100350000146BDE8F08D00204FF48011064684462A
:100360000EE0171B73EB050705D3121B63EB0503A8
:1003700006434CEA010C49084FEA300092185B41F1
:1003800050EA0107EDD152EA030012D082EA0400DC
:1003900083EA0501084305D0101BAB4106D20122B8
:1003A000002306E000224FF0004302E06FF001025C
:1003B00053101AEB06004CEB085110EB0A0041EB0E
:1003C0000B01BDE8F04D00F0CEB80EB5C10F80EACC
:1003D000E0700844CA07002140F233438DE80E0064
:1003E0000A460B4600F0CEF803B000BD00F0004214
:1003F00030F000400AD0C10D01F56071C0F3160065
:1004000042EA0151C20840071143704700200146EB
:10041000704701F0004330B421F0004150EA01027E
:1004200006D00A0DA2F56072C1F31301002A02DCA6
:1004300030BC00207047440F44EAC104C100E018FA
:1004400030BC00EBC25000F057B830B50B46014647
:1004500000202022012409E021FA02F59D4205D363
:1004600003FA02F5491B04FA02F52844151EA2F10D
:100470000102F1DC30BD2DE9F05F05460020924617
:100480009B4688460646814640241BE02846414656
:100490004746224600F020F853465A46C01A91417A
:1004A00010D311461846224600F0A4F92D1A67EB26
:1004B00001084F4622460120002100F09BF917EB6E
:1004C00000094E41201EA4F10104DFDC48463146FC
:1004D0002A464346BDE8F09F202A04DB203A21FA51
:1004E00002F00021704721FA02F3D040C2F120024D
:1004F00091400843194670470029A8BF7047401C27
:10050000490008BF20F00100704710B4B0FA80FC29
:1005100000FA0CF050EA010404BF10BC704749B166
:10052000CCF1200421FA04F411FA0CF118BF0121D6
:1005300021430843A3EB0C01CB1D4FEA00614FEAB6
:10054000102042BF002010BC704700EBC350104485
:100550000029A4BF10BC7047401C490008BF20F010
:10056000010010BC704710B5141E73F1000408DAC6
:10057000401C41F1000192185B411A4301D120F067
:10058000010010BD2DE9F04D92469B4611B1B1FA24
:1005900081F202E0B0FA80F22032904600F02AF9AF
:1005A00004460F4640EA0A0041EA0B0153465A4608
:1005B000084313D0114653EA010019D0C8F1400294
:1005C0005046FFF789FF05460E46504659464246BB
:1005D00000F010F9084305D0012004E02046394618
:1005E000BDE8F08D0020054346EAE0762C43374312
:1005F0000A986305E40AA0EB08000022FD0A44EA19
:1006000047540A3002D500200146E9E701051019D8
:100610006941DDE9084500196941BDE8F04DA2E7EF
:100620002DE9FE4F804681EA0300C00F0C46009082
:1006300021F0004123F00045B8EB0200A94105D2AA
:100640004046214690461C460B46024623F0004099
:10065000104347D0270DC7F30A00C3F30A51029095
:10066000401A019040286BDAC3F3130040F4801B5A
:100670000098924620B10023D2EB030A63EB0B0BE8
:1006800001985946C0F14002504600F0B3F80646C2
:100690000D4650465946019A00F0BBF810EB080091
:1006A0006141002487EA115284EAE7731A4340D07B
:1006B000009A62B3019A012A4FEA075215DC001B27
:1006C00061EB02014FF0004202EA0752CDE900421D
:1006D000001C41F5801132462B46FFF753FF03B053
:1006E000BDE8F08F40462146F9E7001B61EB0201AF
:1006F000001C41F5801300185B412018A2F500177B
:1007000047EB030140EAD570B6196D4111E06D0861
:100710004FEA360645EAC0754FEA0752001B61EB07
:100720000201001C41F5801149084FEA3000001910
:10073000514132462B4603B0BDE8F04FFFF713BFDF
:100740000098012240000023D0EB020263EBE0732B
:10075000009821464FEAE074B8EB000061EB040119
:10076000E9E783F000435BE781F0004158E7C1F31C
:100770000A52C1F3130140F2FF3341F480119A424F
:1007800002DA00200146704740F233439A42A2F257
:10079000334202DC5242FFF79FBE00F02BB800004C
:1007A00030B5041E71F1000404DB4FF000444042F8
:1007B00064EB0101141E73F1000405DB1C464FF0CD
:1007C0000043524263EB0403994208BF904230BD9C
:1007D000064C074D06E0E06840F0010394E807008E
:1007E00098471034AC42F6D3FFF7D2FCC023000880
:1007F000E0230008202A04DB203A00FA02F100205E
:1008000070479140C2F1200320FA03F3194390404E
:100810007047202A06DBCB17203A41FA02F043EA60
:10082000E07306E041FA02F3D040C2F120029140A9
:10083000084319467047000010B52DED068B82B0B5
:1008400000249FED1F0AB0EE408A022201A9002079
:1008500000F0A0F89DF805009DF8041040EA012082
:1008600004B247F6FF70844209DA00EE104AB8EE8F
:10087000C00ADFED140A20EE200AB0EE408A47F6E7
:10088000FF70844216DB601EFFF79FFD41EC1A0BE0
:100890009FED0D0B53EC102BFFF7B6FC41EC190B41
:1008A000FFF7B7FD00EE100AFFEE000A20EE200A67
:1008B000B0EE408AB0EE480A02B0BDEC068B10BD27
:1008C000000000000000003C000000000000803F2D
:1008D00010B500F0A3FB4FF400710C4800F0FAF8DB
:1008E0004FF48071094800F0F5F8052001F03EFB57
:1008F0004FF40071054800F0EBF8052001F036FBDD
:100900004FF48071014800F0E3F810BD000402408C
:1009100010B500F083FB4FF400710A4800F0D8F8DE
:100920004FF48071074800F0D5F8052001F01EFB58
:100930004FF40071034800F0CDF8052001F016FBDC
:1009400010BD0000000402401CB50121022000F08F
:10095000A3FA01208DF8040002208DF80500002084
:100960008DF8060001208DF807004FF440700090CC
:100970006946074800F038F84FF40071044800F069
:10098000A9F84FF48071024800F0A4F81CBD0000E3
:100990000004024070B504460D46164633462A460A
:1009A0002146482000F0BCF8642001F0ACFA70BD8C
:1009B00000BFFEE77047000010B507480088401CE4
:1009C00005490880084600880A2801D100200880CF
:1009D000102000F003F810BD1C0000200149086041
:1009E00070470000143C0140F0B50A460021002386
:1009F000002400BF3DE0012505FA01F3156805EA72
:100A000003049C4234D105684F000326BE40B54321
:100A1000056015794E00B5400668354305601579C7
:100A2000012D02D01579022D16D185684F000326BD
:100A3000BE40B543856055794E00B5408668354364
:100A40008560456801268E40B543456045689679C6
:100A50008E40B6B235434560C5684F000326BE40A0
:100A6000B543C560D5794E00B540C6683543C5600D
:100A7000491C1029BFD3F0BDF0B5002300244D0759
:100A8000ED0E02FA05F3CE1000F1200555F82650C0
:100A90004E07F70E0F26BE40B543CF1000F12006DB
:100AA00046F82750CE1000F1200555F8265045EAAB
:100AB0000304CE1000F1200545F82640F0BD0246A3
:100AC000002013690B400BB1012000E000207047AB
:100AD00041837047018370470CB50F4909788DF841
:100AE00000100D4991F841108DF801100A4991F854
:100AF00042108DF80410084991F847108DF8021043
:100B0000054991F848108DF80310009901609DF88F
:100B1000041001710CBD00007400002000BFFEE74E
:100B20002DE9F04105460F4616461C4600F062FAD4
:100B3000FFF7CEFE002141EA4501C8B200F09EF861
:100B400000F028F8384600F099F800F023F8FFF795
:100B5000BFFE0F2001F0D7F9012101EB4501C8B21A
:100B600000F08CF800F016F80EE000F037F8307066
:100B7000012C03D1012000F059F802E0002000F020
:100B800055F8761C601E84B2002CEED1FFF7C0FE33
:100B9000BDE8F08110B500F02DFAFF24611C0E486D
:100BA000FFF798FF00BF00F01BFA20B12000A4F16E
:100BB0000101CCB2F7D1002C03DCFFF7A9FEFF2026
:100BC00010BD4FF480710448FFF782FF022001F04E
:100BD000CDF90020F4E700000004024070B500F0F9
:100BE00009FA00244FF400710F48FFF773FF002546
:100BF00016E06006040E4FF480710B48FFF76AFFA1
:100C0000022001F0B3F900F0EBF904434FF48071D6
:100C10000548FFF75DFF022001F0A8F9681CC5B286
:100C2000082DE6DB204670BD0004024010B50446E6
:100C300000F0F4F94FF480710F48FFF749FF2CB131
:100C40004FF400710C48FFF745FF04E04FF40071CA
:100C50000948FFF73DFF052001F088F94FF4807146
:100C60000548FFF737FF052001F080F94FF4807148
:100C70000148FFF72DFF10BD0004024070B5044687
:100C800000F0CCF9002521E004F0800028B14FF4F9
:100C900000711048FFF71EFF04E04FF400710D488B
:100CA000FFF716FF4FF480710A48FFF713FF052086
:100CB00001F05CF94FF480710648FFF709FF052049
:100CC00001F054F96006040E681CC5B2082DDBDB88
:100CD00070BD00000004024010B588B00446012138
:100CE000084600F0D9F80121480400F0E5F8072291
:100CF00002212548FFF7C0FE072203212248FFF703
:100D0000BBFE02208DF8080003208DF809000020AA
:100D10008DF80A0001208DF80B000C20019001A92C
:100D20001948FFF761FE04940020ADF81400ADF8F7
:100D30001600ADF81800ADF81C000C20ADF81A0034
:100D400004A9124800F02CFB26208DF80C0002208C
:100D50008DF80D0000208DF80E0001208DF80F0099
:100D600003A800F019F8012240F22551074800F0CD
:100D7000F1FA0121054800F0AAFA8A21034800F09F
:100D800035FC08B010BD00000000024000440040E7
:100D900000BFFEE77047000070B5002100230F225E
:100DA000C4781CB3174C246804F4E064C4F5E06410
:100DB000C4F30721C1F10404E3B20A4144789C4022
:100DC000E1B28478144021430C07210E0E4C0578C3
:100DD0006155047804F01F050124AC4005786D11BD
:100DE000AD0005F1E025C5F8004109E0047804F004
:100DF0001F050124AC40054D0678761145F82640C4
:100E000070BD00000CED00E000E400E080E100E0D7
:100E100002490143024A1160704700000000FA05D0
:100E20000CED00E07047000010B54FF4A060FFF734
:100E3000EFFF4FF4165000F029FBFFF785FD4FF44C
:100E40001640FFF749FF4FF4E13000F077FB03A0B5
:100E500000F0F0FB0AA000F0EDFB10BDC9F1D6DBFD
:100E6000BAC5D6C7C4DCBDA1BFB5CFB5CDB3B3F548
:100E7000CABCBBAFCDEAB3C9A1A30D0A00000000F4
:100E8000CFB5CDB3BECDD0F7A3ACB5C8B4FDC3FCD0
:100E9000C1EE2E2E2E0D0A0029B1064A1268024319
:100EA000044B1A6004E0034A12688243014B1A6043
:100EB000704700003038024029B1064A12680243E8
:100EC000044B1A6004E0034A12688243014B1A6023
:100ED000704700004038024029B1064A12680243B8
:100EE000044B1A6004E0034A12688243014B1A6003
:100EF0007047000044380240F0B500210022002471
:100F0000022500260223324F3F6807F00C0121B171
:100F1000042905D0082937D105E02E4F076036E0B7
:100F20002D4F076033E02A4F3F1F3F68C7F38056BD
:100F3000274F3F1F3F6807F03F036EB1264FB7FBB7
:100F4000F3F7DFF88CC0ACF1040CDCF800C0CCF394
:100F5000881C07FB0CF40CE01E4FB7FBF3F7DFF81F
:100F600070C0ACF1040CDCF800C0CCF3881C07FBAB
:100F70000CF4174F3F1F3F68C7F301477F1C7D00EC
:100F8000B4FBF5F7076002E0124F076000BF00BF37
:100F90000F4F3F6807F0F0010909104F7A5C0768AE
:100FA000D74047600A4F3F6807F4E051890A0B4F6A
:100FB0007A5C4768D7408760054F3F6807F4604117
:100FC000490B064F7A5C4768D740C760F0BD000008
:100FD000083802400024F40000127A0000000020CB
:100FE00010B54FF400710248FFF769FD10BD000015
:100FF000000402401CB501210220FFF74DFF002034
:101000008DF8040001208DF8070040020090694629
:101010000148FFF7E9FC1CBD000402401CB501219A
:101020000220FFF739FF01208DF8040002208DF81F
:10103000050000208DF8060001208DF80700400211
:10104000009069460148FFF7CFFC1CBD0004024038
:10105000704700000CB500200190009034480068F3
:1010600040F480303249086000BF3148006800F425
:10107000003000900198401C0190009818B9019828
:10108000B0F5A04FF1D12A48006800F4003010B14B
:101090000120009001E0002000900098012846D136
:1010A00023484030006840F08050214940310860BA
:1010B0002048006840F440401E4908601C48083041
:1010C00000681B49083108600846006840F4004089
:1010D00008600846006840F4A05008601648091FE0
:1010E0000860081F006840F08070091F086000BF9A
:1010F0000F48006800F000700028F9D040F2057039
:101100000E4908600A480830006820F003000849CA
:10111000083108600846006840F00200086000BF1F
:1011200003480830006800F00C000828F8D10CBD16
:10113000003802400070004008544007003C024064
:101140007047000010B51548006840F4700013495E
:1011500008601348006840F0010011490860002051
:101160000F49083108600E4800680E4908400C49D4
:1011700008600D48091D0860081F006820F48020E1
:10118000091F0860002006490C310860FFF762FF64
:101190004FF0006001498039086010BD88ED00E023
:1011A00000380240FFFFF6FE1030002410B540F278
:1011B0002551054800F0A4F8012804D140F225513A
:1011C000014800F075F810BD0010014010B540F264
:1011D0002551154800F094F828B340F225511248E3
:1011E00000F066F8104800F045F9C4B2FF2C02D1B7
:1011F00001200E4908700D48007840B10C480D4997
:10120000097844540B480078401C0A490870094882
:101210000078572807DD0020064908700349087048
:1012200001200549087010BD004400402000002046
:10123000740000201F0000201E00002010B540F2A6
:101240002551174800F05CF848B3154800F012F932
:10125000C4B2144800684F2816DA134811490968C7
:10126000445410480068401C0E4908600A2C10D1F4
:1012700000210D480B4A1268815401200B49088057
:1012800000200849086004E000200849088005495A
:10129000086040F22551024800F00AF800BF10BD76
:1012A000004800401000002024000020140000200E
:1012B00010B50022002340F66A14A14200D100BFFD
:1012C0000A1201249440A3B2DC43048010BD21B172
:1012D000828942F40052828104E082894DF6FF73D4
:1012E0001A408281704702460020B1F5007F00D18C
:1012F00000BF13880B400BB1012000E000207047B5
:1013000070B50246002400230025002040F66A162E
:10131000B14200D100BFC1F3421501F01F03012605
:1013200006FA03F3012D02D19689334006E0022D1F
:1013300002D1168A334001E0968A33400C1201260E
:1013400006FA04F41688344013B10CB1012000E011
:10135000002070BDF0B503460024002600250020C3
:1013600040F66A17B94200D100BF1846C1F34214D3
:1013700001F01F06012707FA06F5012C01D10C30F8
:1013800004E0022C01D1103000E014301AB10768DB
:101390002F43076002E00768AF430760F0BD00001D
:1013A0002DE9FF4705460E460024A14600BFA04692
:1013B000B08900B100BF2C8A24F44054F088044363
:1013C0002C82AC8941F20C608443B0883189084397
:1013D000718908430443AC81AC8A24F44074B08919
:1013E0000443AC826846FFF787FD2048854202D05F
:1013F0001F48854202D1DDF80C9001E0DDF808902D
:10140000A88900F4004040B109EBC90000EB0910C5
:1014100031684900B0FBF1F707E009EBC90000EBC8
:10142000091031688900B0FBF1F76420B7FBF0F0D8
:1014300004012009642101FB1078A88900F4004010
:1014400040B1322000EBC800B0FBF1F000F0070023
:10145000044308E0322000EB08106421B0FBF1F0F7
:1014600000F00F0004432C81BDE8FF87001001400D
:101470000014014001468888C0F308007047C1F39A
:1014800008028280704700BFFEE7000010B588B0F8
:10149000044601210846FFF7FFFC01211020FFF759
:1014A0001BFD072209212348FFF7E6FA07220A213C
:1014B0002048FFF7E1FA02208DF8080003208DF89C
:1014C000090000208DF80A0001208DF80B004FF470
:1014D000C060019001A91748FFF786FA0494002024
:1014E000ADF81400ADF81600ADF81800ADF81C000A
:1014F0000C20ADF81A0004A90F48FFF751FF252072
:101500008DF80C0001208DF80D0000208DF80E00E4
:1015100001208DF80F0003A8FFF73EFC012240F2E6
:1015200025510548FFF716FF01210348FFF7CFFEBD
:1015300008B010BD000002400010014010B588B096
:10154000044601210220FFF7A7FC01218804FFF7D0
:10155000B3FC07220A212348FFF78EFA07220B214A
:101560002048FFF789FA02208DF8080003208DF843
:10157000090000208DF80A0001208DF80B004FF4BF
:101580004060019001A91748FFF72EFA049400204B
:10159000ADF81400ADF81600ADF81800ADF81C0059
:1015A0000C20ADF81A0004A90F48FFF7F9FE272018
:1015B0008DF80C0001208DF80D0000208DF80E0034
:1015C00001208DF80F0003A8FFF7E6FB012240F28F
:1015D00025510548FFF7BEFE01210348FFF777FEBE
:1015E00008B010BD000402400048004070B5044639
:1015F0000D4629462046FFF742FF00BF80212046C6
:10160000FFF771FE0028F9D070BD70B506460C4694
:10161000002500BF615D3046FFF7E8FF6D1C605D8F
:101620000028F7D100BF40213046FFF75CFE0028BC
:10163000F9D070BD0FB4054B10B503A9044A029848
:1016400000F0CAF810BC5DF814FB0000D51F0008BC
:101650001800002002E008C8121F08C1002AFAD1B1
:1016600070477047002001E001C1121F002AFBD122
:10167000704700002DE9FF5FDDE90220010DDDF874
:1016800038B0024318D044F61050A1F2FF31414364
:101690000D140F98012820D0A5EB0B00401C5FEA29
:1016A000000A4FF00004474EDFF81C91A046504658
:1016B00016D5CAF1000728E00F98012443A201289B
:1016C00008D0002100980F9BC0E90021C0E9024327
:1016D000BDE8FF9F6FEA0B01F4E7CBF10000DEE706
:1016E000074612E0F80707D02246334640464946EF
:1016F000FEF78AFD80468946224633461046194643
:10170000FEF782FD04460E467F10002FEAD1DDE988
:101710000201BAF1000F42464B4602DAFEF774FDB1
:1017200001E0FEF7E3FD04460E460022284BFFF7DA
:1017300037F803D84FF0FF30014607E00022254B71
:1017400020463146FEF76CFFFFF711F8102409E040
:10175000002C0ADB0A220023FEF78DFE019B3032AB
:101760001A55641E50EA0102F2D1641C019AC4F1B8
:10177000110314440F9A012A03D0012208430DD10A
:101780000AE0084304D000204FF0110B0F9080E7CF
:10179000A3EB0B056D1E0DE05B4504DD4FF0000271
:1017A00005F1010504E003DA4FF00002A5F101059F
:1017B000002AECD000980F99C0E90231C0E9004539
:1017C00086E70000000024400000F03F30000000E9
:1017D0000000F0430000E03F2DE9FF4F95B09B462D
:1017E0008946064600250FE2252877D100242746A2
:1017F000F84A0121059400E0044316F8013F203B1C
:1018000001FA03F01042F7D130782A2811D06FF096
:101810002F033078A0F13002092A16D8059A44F037
:10182000020402EB820203EB42021044761C059094
:10183000EFE759F8042B0592002A03DA504244F4EA
:101840000054059044F00204761C30782E2816D1FE
:1018500016F8010F44F004042A280DD06FF02F026F
:101860003078A0F13003092B09D807EB870302EB8E
:101870004303C718761CF3E759F8047B761C3078CD
:101880006C280FD006DC4C2817D068280DD06A28A9
:1018900014D104E0742810D07A280FD10DE044F45C
:1018A00000140AE044F4801401E044F44014727817
:1018B000824202D104F58014761C761C30786628AA
:1018C0000BD013DC582877D009DC002875D04528C8
:1018D000F6D04628F4D047281AD19DE118E06328B5
:1018E00035D0642879D0652812D195E1702873D05D
:1018F00008DC6728F1D069286FD06E280DD06F28DA
:1019000006D1B5E073282CD0752875D0782874D00E
:101910005A46179990476D1C75E1C4F3025002288E
:1019200009D003280DD0D9F8001004280DD00D607F
:1019300009F1040967E1D9F80010EA17C1E900527A
:10194000F6E7D9F800100D80F2E70D70F0E719F80E
:10195000041B8DF8001000208DF80100EA460120DC
:1019600003E059F804AB4FF0FF3061074FF000017E
:1019700002D40DE008F101018846B9420FDA804532
:10198000F8DB1AF808100029F4D108E008F1010189
:1019900088468142FADB1AF808100029F6D105982A
:1019A0005B46A0EB080721463846179A00F094FAE8
:1019B000284400EB080507E04DE029E10DE01AF8A6
:1019C000010B5A4617999047B8F10108F7D25B46C8
:1019D00021463846179A13E142E00A220092C4F3E6
:1019E00002524FF0000A022A08D059F804CB032A09
:1019F0004FEAEC710AD00DE029E02AE009F1070175
:101A000021F00702F2E802C1914609E00FFA8CFCCE
:101A10004FEAEC71042A03D14FFA8CFC4FEAEC71C7
:101A2000002907DA0A460021DCF1000C61EB020113
:101A30002D2202E0220504D52B228DF8042001225C
:101A400003E0E20701D02022F7E7904659E00A219F
:101A500002E010220DE010214FF0000A00910BE08F
:101A600010224FF0000A44F004040827009203E01B
:101A700008224FF0000A0092C4F30252022A05D055
:101A800059F804CB0021032A08D009E009F1070125
:101A900021F00702F2E802C1914605E01FFA8CFC32
:101AA000042A01D10CF0FF0C4FF00008220728D5C2
:101AB000702806D0009B83F0100353EA0A0305D078
:101AC0000EE040228DF80420012208E05CEA0102C9
:101AD00006D030228DF804208DF8050002229046B1
:101AE000009B83F0080353EA0A030AD15CEA01026F
:101AF00001D1620705D530228DF804204FF001088E
:101B00007F1E582804D034A003900EA802900DE048
:101B100036A0F9E753466046009AFEF7ACFC8446CF
:101B20000398825C0298401E029002705CEA0100F9
:101B3000F0D1029806A9081A00F1200A600702D520
:101B400024F4803400E00127574502DDA7EB0A00AA
:101B500000E0002000EB0A01009005984144401A83
:101B60000590E00306D45B462146179A059800F0DD
:101B7000B3F90544002706E001A85A46C05D17994D
:101B800090476D1C7F1C4745F6DBE0030CD55B4698
:101B90002146179A059800F09FF9054404E030208B
:101BA0005A46179990476D1C0099481E00900029CD
:101BB000F5DC08E0029802995A460078491C029127
:101BC000179990476D1CBAF10001AAF1010AF1DCE6
:101BD00065E10000092801003031323334353637F1
:101BE0003839616263646566000000003031323369
:101BF0003435363738394142434445460000000009
:101C000000F058F90544761C307800287FF4ECADDC
:101C100019B02846BDE8F08F620700D4062709F105
:101C2000070222F0070CFCE80223E14603F000481B
:101C30005FEA080C02D00FF2702C0DE05FEA045C42
:101C400002D50FF2682C07E05FEAC47C02D00FF2E5
:101C5000602C01E0AFF2700C4FF0FF3823F000432E
:101C6000CDF850C065280CD006DC452809D04628A0
:101C70001DD047283DD13DE0662818D067287ED189
:101C800038E00021112F01DB112000E0781CCDE9A4
:101C9000000106A90EA8FFF7EDFCDDE90F010E9A81
:101CA00003910021009207F1010A04914DE04FF0E9
:101CB00000400097CDE9011006A90EA8FFF7DAFC55
:101CC000DDE90F0203920E9B11990022DDF80CA0B2
:101CD0000093049211B9791C00EB010AB7EB0A00DA
:101CE00004D4C0F1FF3007F1010A0490AAEB070009
:101CF000019044E0012F00DA01270021112F01DDBE
:101D0000112000E03846CDE9000106A90EA8FFF732
:101D1000B1FCDDE90F010E9A0391002104910092BC
:101D2000BA4621070CD40399514500DA8A46BAF124
:101D3000010F05DD009AAAF10101515C302908D09C
:101D4000B84202DA10F1040F06DA0121CDE90110E0
:101D500015E0AAF10101E9E7002805DC0499014436
:101D60000491AAEB000102E0411C514500DD8A46C6
:101D70000499401A401C01904FF000400290200747
:101D800004D40198504501DBCDF8048000208DF883
:101D90004F0002980DF14F07B0F1004F25D02B20D6
:101DA0000E9002984FF0020800280CDA4042029090
:101DB0002D200E9007E00A210298FEF746FB3031F5
:101DC000029007F8011DB8F10001A8F10108F2DC4A
:101DD00002980028EFD1791E0E980870307800F034
:101DE000200040F0450007F8020D12A8C01B00F1CA
:101DF00007081498007800B1012000EB0A0101984F
:101E000001EBE07105984144401A401E0590E00343
:101E100006D45B462146179A059800F05DF8054404
:101E20001498007818B15A46179990476D1CE00332
:101E300024D55B462146179A059800F04DF80544D5
:101E40001CE00498002807DBDDE90301884203DD7C
:101E50000098405C179901E0179930205A46904746
:101E6000049805F10105401C04900198401E019062
:101E700004D12E205A46179990476D1CBAF10001E3
:101E8000AAF1010ADDDC05E017F8010B5A461799A3
:101E900090476D1CB8F10001A8F10108F4DC5B4625
:101EA0002146179A0598ABE62D0000002B00000094
:101EB000200000002DE9F041044600251E4617468B
:101EC000880404D405E039462020B0476D1C641E08
:101ED000F9D52846BDE8F0812DE9F04104460025FA
:101EE0001E469046C80301D5302700E0202788040D
:101EF00004D505E041463846B0476D1C641EF9D54F
:101F00002846BDE8F08100214FF0E0221161C0EBCE
:101F1000C00101EB410101EB4102C2EBC111012201
:101F2000C2EBC1014FF0E02251610021916101211A
:101F3000116100BF4FF0E021096901F480310029EF
:101F4000F8D000214FF0E0221161704700B5034640
:101F500007E04FF4FA70FFF7D6FF4FF4FA70FFF77F
:101F6000D2FF1800A3F10103F3D100BD00214FF00F
:101F7000E0221161C0EBC00101EB4101491E51613A
:101F8000002191610121116100BF4FF0E021096939
:101F900001F480310029F8D000214FF0E0221161D6
:101FA0007047000070B5054600240CE0084800EBBF
:101FB000C40041682846FEF715F918B1044850F8E6
:101FC000340070BD641C062CF0DB4FF0FF30F8E7E6
:101FD000F422000800BF054A128802F04002002ADD
:101FE000F9D0C2B2014B1B1D1A8070470048004057
:101FF0000146142918D006DC02290BD0032911D080
:10200000062913D10CE0422908D0A1F2E7300028BC
:102010000CD101E006A070470DA0FCE712A0FAE782
:1020200019A0F8E71EA0F6E723A0F4E728A0F2E73E
:10203000C4E3BAC3A3A1D3D0CAB2C3B4BFC9D2D474
:10204000B0EFD6FAC4E3B5C4C2F0A3BF0D0A0000D6
:10205000D4D9BCFBA3A1D7A3C4E3C9EDCCE5BDA1F2
:10206000BFB5A3A10D0A0000CED2CAC7C9F1D6DB05
:10207000BAC5D6C7C4DCBDA1BFB5BCECB2E2CFB512
:10208000CDB3A1A30D0A0000D5FDD4DACEAAC4E3D6
:10209000B2E2C1BFD0C4C2CA2E2E2E0D0A0000006B
:1020A000D5FDD4DACEAAC4E3B2E2C1BFD1AAD1B978
:1020B0002E2E2E0D0A000000D5FDD4DACEAAC4E3E0
:1020C000B2E2C1BFCCE5CEC22E2E2E0D0A0000001A
:1020D000CEB4D6AAC3FCC1EEA3ACC7EBD6D8CAD443
:1020E000A1A30D0A000000002DED028B84B09FED2E
:1020F000630A10EE106A4FF0FF340025FEF794FEDD
:10210000BAE05F48008800287AD05E495E48FFF751
:102110007CFA5C48FFF746FF0446601C002870D03C
:102120002046FFF765FF074639465848FFF76DFA26
:10213000142C6FD006DC022C7DD0032C09D0062C89
:102140007AD13BE0422C78D0A4F2E73000287FD14E
:102150007BE0012550214B48FEF739F80020484923
:10216000088027E06846FEF7B7FCDDE90001CDE90D
:1021700002019DF80A00D0B19DF80B00B8B144A14E
:102180004248FFF742FA9DF80A1043A0FFF752FABF
:1021900042A13E48FFF739FA9DF80B103EA0FFF729
:1021A00049FA41A13948FFF730FA002504E001203F
:1021B000FFF7CCFE002DD5D100BF4EE00125502108
:1021C0003048FEF704F800202D4908801EE06846DC
:1021D000FEF782FCDDE90001CDE902019DF809006E
:1021E00088B132A12948FFF710FA9DF809102AA0FA
:1021F000FFF720FA2FA12548FFF707FA002507E08F
:1022000037E02BE006E00120FFF7A0FE002DDED135
:1022100000BF22E0FEF710FB10EE106A28A11B4859
:10222000FFF7F3F93046FEF7E1F841EC180B53ECF9
:10223000182B25A002E009E00AE008E0FFF7FAF910
:1022400023A11248FFF7E1F907E006E005E004E00A
:1022500021A10E48FFF7D9F900BF03E024490B483C
:10226000FFF7D3F950210748FDF7B1FF00200449DB
:1022700008800120FFF76AFE43E70000000000002D
:1022800014000020240000200010014000480040FD
:10229000CAD5CBF5D1B97C00256400007CCAE6D54F
:1022A000C5D1B97C000000000D0A0000D0C4C2CA2C
:1022B0007C0000007CB4CE2FB7D60D0A00000000D1
:1022C000CCE5CEC27C000000252E32660000000066
:1022D0007CA1E60D0A000000CEB4D6AAC3FCC1EE74
:1022E000A3ACC7EBD6D8CAD4A1A30D0A0000000046
:1022F00028230008030000007C23000802000000DF
:1023000094230008E7030000B823000842000000FF
:10231000A8230008060000009C2300081400000009
:102320008823000806000000C3FCC1EECEB4CAB684
:10233000B1F0A3ACC7EBCBB5B3F63A20C4E3BAC354
:10234000A1A2CED2D2AAB2E2D0C4C2CAA1A2CED297
:10235000D2AAC1BFD1AAD1B9A1A2CED2D2AAB2E289
:10236000CCE5CEC2A1A2C4E3BDD0CAB2C3B4C3FB04
:10237000D7D6A1A2D4D9BCFB0D0A0000CED2D2AAD6
:10238000C1BFD1AAD1B90000CED2D2AAB2E2CCE567
:10239000CEC20000C4E3BAC300000000CED2D2AA6D
:1023A000B2E2D0C4C2CA0000C4E3BDD0CAB2C3B452
:1023B000C3FBD7D600000000D4D9BCFB000000004E
:1023C000E02300080000002024000000541600084C
:1023D0000424000824000020AC0400006416000857
:1023E00000000000010203040102030406070809BB
:1023F00000000000000000000000000000000000DD
:0424000000000000D8
:040000050800018965
:00000001FF
